{
  "address": "0x5a97891a462A32254177a96ED3828D928Fdc9a3d",
  "abi": [
    {
      "inputs": [
        {
          "internalType": "address",
          "name": "admin_",
          "type": "address"
        },
        {
          "internalType": "string",
          "name": "baseURI_",
          "type": "string"
        },
        {
          "internalType": "string",
          "name": "name_",
          "type": "string"
        },
        {
          "internalType": "string",
          "name": "symbol_",
          "type": "string"
        }
      ],
      "stateMutability": "nonpayable",
      "type": "constructor"
    },
    {
      "anonymous": false,
      "inputs": [
        {
          "indexed": true,
          "internalType": "address",
          "name": "owner",
          "type": "address"
        },
        {
          "indexed": true,
          "internalType": "address",
          "name": "approved",
          "type": "address"
        },
        {
          "indexed": true,
          "internalType": "uint256",
          "name": "tokenId",
          "type": "uint256"
        }
      ],
      "name": "Approval",
      "type": "event"
    },
    {
      "anonymous": false,
      "inputs": [
        {
          "indexed": true,
          "internalType": "address",
          "name": "owner",
          "type": "address"
        },
        {
          "indexed": true,
          "internalType": "address",
          "name": "operator",
          "type": "address"
        },
        {
          "indexed": false,
          "internalType": "bool",
          "name": "approved",
          "type": "bool"
        }
      ],
      "name": "ApprovalForAll",
      "type": "event"
    },
    {
      "anonymous": false,
      "inputs": [
        {
          "indexed": false,
          "internalType": "address",
          "name": "account",
          "type": "address"
        }
      ],
      "name": "Paused",
      "type": "event"
    },
    {
      "anonymous": false,
      "inputs": [
        {
          "indexed": true,
          "internalType": "address",
          "name": "from",
          "type": "address"
        },
        {
          "indexed": true,
          "internalType": "address",
          "name": "to",
          "type": "address"
        },
        {
          "indexed": true,
          "internalType": "uint256",
          "name": "tokenId",
          "type": "uint256"
        }
      ],
      "name": "Transfer",
      "type": "event"
    },
    {
      "anonymous": false,
      "inputs": [
        {
          "indexed": false,
          "internalType": "address",
          "name": "account",
          "type": "address"
        }
      ],
      "name": "Unpaused",
      "type": "event"
    },
    {
      "inputs": [],
      "name": "admin",
      "outputs": [
        {
          "internalType": "address",
          "name": "",
          "type": "address"
        }
      ],
      "stateMutability": "view",
      "type": "function"
    },
    {
      "inputs": [
        {
          "internalType": "address",
          "name": "to",
          "type": "address"
        },
        {
          "internalType": "uint256",
          "name": "tokenId",
          "type": "uint256"
        }
      ],
      "name": "approve",
      "outputs": [],
      "stateMutability": "nonpayable",
      "type": "function"
    },
    {
      "inputs": [
        {
          "internalType": "address",
          "name": "owner",
          "type": "address"
        }
      ],
      "name": "balanceOf",
      "outputs": [
        {
          "internalType": "uint256",
          "name": "",
          "type": "uint256"
        }
      ],
      "stateMutability": "view",
      "type": "function"
    },
    {
      "inputs": [
        {
          "internalType": "string",
          "name": "newBaseURI",
          "type": "string"
        }
      ],
      "name": "changeBaseURI",
      "outputs": [],
      "stateMutability": "nonpayable",
      "type": "function"
    },
    {
      "inputs": [
        {
          "internalType": "uint256",
          "name": "tokenId",
          "type": "uint256"
        }
      ],
      "name": "getApproved",
      "outputs": [
        {
          "internalType": "address",
          "name": "",
          "type": "address"
        }
      ],
      "stateMutability": "view",
      "type": "function"
    },
    {
      "inputs": [
        {
          "internalType": "address",
          "name": "owner",
          "type": "address"
        },
        {
          "internalType": "address",
          "name": "operator",
          "type": "address"
        }
      ],
      "name": "isApprovedForAll",
      "outputs": [
        {
          "internalType": "bool",
          "name": "",
          "type": "bool"
        }
      ],
      "stateMutability": "view",
      "type": "function"
    },
    {
      "inputs": [],
      "name": "name",
      "outputs": [
        {
          "internalType": "string",
          "name": "",
          "type": "string"
        }
      ],
      "stateMutability": "view",
      "type": "function"
    },
    {
      "inputs": [
        {
          "internalType": "uint256",
          "name": "tokenId",
          "type": "uint256"
        }
      ],
      "name": "ownerOf",
      "outputs": [
        {
          "internalType": "address",
          "name": "",
          "type": "address"
        }
      ],
      "stateMutability": "view",
      "type": "function"
    },
    {
      "inputs": [],
      "name": "paused",
      "outputs": [
        {
          "internalType": "bool",
          "name": "",
          "type": "bool"
        }
      ],
      "stateMutability": "view",
      "type": "function"
    },
    {
      "inputs": [
        {
          "internalType": "address",
          "name": "from",
          "type": "address"
        },
        {
          "internalType": "address",
          "name": "to",
          "type": "address"
        },
        {
          "internalType": "uint256",
          "name": "tokenId",
          "type": "uint256"
        }
      ],
      "name": "safeTransferFrom",
      "outputs": [],
      "stateMutability": "nonpayable",
      "type": "function"
    },
    {
      "inputs": [
        {
          "internalType": "address",
          "name": "from",
          "type": "address"
        },
        {
          "internalType": "address",
          "name": "to",
          "type": "address"
        },
        {
          "internalType": "uint256",
          "name": "tokenId",
          "type": "uint256"
        },
        {
          "internalType": "bytes",
          "name": "_data",
          "type": "bytes"
        }
      ],
      "name": "safeTransferFrom",
      "outputs": [],
      "stateMutability": "nonpayable",
      "type": "function"
    },
    {
      "inputs": [
        {
          "internalType": "address",
          "name": "operator",
          "type": "address"
        },
        {
          "internalType": "bool",
          "name": "approved",
          "type": "bool"
        }
      ],
      "name": "setApprovalForAll",
      "outputs": [],
      "stateMutability": "nonpayable",
      "type": "function"
    },
    {
      "inputs": [],
      "name": "setPause",
      "outputs": [],
      "stateMutability": "nonpayable",
      "type": "function"
    },
    {
      "inputs": [
        {
          "internalType": "bytes4",
          "name": "interfaceId",
          "type": "bytes4"
        }
      ],
      "name": "supportsInterface",
      "outputs": [
        {
          "internalType": "bool",
          "name": "",
          "type": "bool"
        }
      ],
      "stateMutability": "view",
      "type": "function"
    },
    {
      "inputs": [],
      "name": "symbol",
      "outputs": [
        {
          "internalType": "string",
          "name": "",
          "type": "string"
        }
      ],
      "stateMutability": "view",
      "type": "function"
    },
    {
      "inputs": [
        {
          "internalType": "uint256",
          "name": "index",
          "type": "uint256"
        }
      ],
      "name": "tokenByIndex",
      "outputs": [
        {
          "internalType": "uint256",
          "name": "",
          "type": "uint256"
        }
      ],
      "stateMutability": "view",
      "type": "function"
    },
    {
      "inputs": [
        {
          "internalType": "address",
          "name": "owner",
          "type": "address"
        },
        {
          "internalType": "uint256",
          "name": "index",
          "type": "uint256"
        }
      ],
      "name": "tokenOfOwnerByIndex",
      "outputs": [
        {
          "internalType": "uint256",
          "name": "",
          "type": "uint256"
        }
      ],
      "stateMutability": "view",
      "type": "function"
    },
    {
      "inputs": [
        {
          "internalType": "uint256",
          "name": "tokenId",
          "type": "uint256"
        }
      ],
      "name": "tokenURI",
      "outputs": [
        {
          "internalType": "string",
          "name": "",
          "type": "string"
        }
      ],
      "stateMutability": "view",
      "type": "function"
    },
    {
      "inputs": [],
      "name": "totalSupply",
      "outputs": [
        {
          "internalType": "uint256",
          "name": "",
          "type": "uint256"
        }
      ],
      "stateMutability": "view",
      "type": "function"
    },
    {
      "inputs": [
        {
          "internalType": "address",
          "name": "from",
          "type": "address"
        },
        {
          "internalType": "address",
          "name": "to",
          "type": "address"
        },
        {
          "internalType": "uint256",
          "name": "tokenId",
          "type": "uint256"
        }
      ],
      "name": "transferFrom",
      "outputs": [],
      "stateMutability": "nonpayable",
      "type": "function"
    },
    {
      "inputs": [],
      "name": "unsetPause",
      "outputs": [],
      "stateMutability": "nonpayable",
      "type": "function"
    }
  ],
  "transactionHash": "0xfb58b11deb244786d44d3729b71c5ba1fcfedd1d863c1eba043053388cf81a21",
  "args": [
    "0x905B2652F330c5e8C07a1637C8E67D5cEf96070d",
    "https://www.youtube.com/",
    "TetNft",
    "TNFT"
  ],
  "numDeployments": 1,
  "solcInputHash": "db3b42e91e555a571946e64edc927d7f",
  "bytecode": "0x60a06040523480156200001157600080fd5b506040516200204f3803806200204f833981016040819052620000349162000179565b6001600160a01b0384166080528382826000620000528382620002ba565b506001620000618282620002ba565b5050600a805460ff1916905550506040516200008290849060200162000386565b604051602081830303815290604052600b9081620000a19190620002ba565b5050505050620003ad565b634e487b7160e01b600052604160045260246000fd5b60005b83811015620000df578181015183820152602001620000c5565b50506000910152565b600082601f830112620000fa57600080fd5b81516001600160401b0380821115620001175762000117620000ac565b604051601f8301601f19908116603f01168101908282118183101715620001425762000142620000ac565b816040528381528660208588010111156200015c57600080fd5b6200016f846020830160208901620000c2565b9695505050505050565b600080600080608085870312156200019057600080fd5b84516001600160a01b0381168114620001a857600080fd5b60208601519094506001600160401b0380821115620001c657600080fd5b620001d488838901620000e8565b94506040870151915080821115620001eb57600080fd5b620001f988838901620000e8565b935060608701519150808211156200021057600080fd5b506200021f87828801620000e8565b91505092959194509250565b600181811c908216806200024057607f821691505b6020821081036200026157634e487b7160e01b600052602260045260246000fd5b50919050565b601f821115620002b557600081815260208120601f850160051c81016020861015620002905750805b601f850160051c820191505b81811015620002b1578281556001016200029c565b5050505b505050565b81516001600160401b03811115620002d657620002d6620000ac565b620002ee81620002e784546200022b565b8462000267565b602080601f8311600181146200032657600084156200030d5750858301515b600019600386901b1c1916600185901b178555620002b1565b600085815260208120601f198616915b82811015620003575788860151825594840194600190910190840162000336565b5085821015620003765787850151600019600388901b60f8161c191681555b5050505050600190811b01905550565b600082516200039a818460208701620000c2565b602f60f81b920191825250600101919050565b608051611c5c620003f3600039600081816102ea015281816106550152818161075b015281816107c2015281816109c101528181610ace0152610b150152611c5c6000f3fe608060405234801561001057600080fd5b50600436106101375760003560e01c80634f842143116100b8578063a22cb4651161007c578063a22cb4651461026b578063b88d4fde1461027e578063c87b56dd14610291578063d431b1ac146102a4578063e985e9c5146102ac578063f851a440146102e857600080fd5b80634f8421431461022a5780635c975abb146102325780636352211e1461023d57806370a082311461025057806395d89b411461026357600080fd5b806323b872dd116100ff57806323b872dd146101cb5780632f745c59146101de57806339a0c6f9146101f157806342842e0e146102045780634f6ccce71461021757600080fd5b806301ffc9a71461013c57806306fdde0314610164578063081812fc14610179578063095ea7b3146101a457806318160ddd146101b9575b600080fd5b61014f61014a3660046115ba565b61030e565b60405190151581526020015b60405180910390f35b61016c610339565b60405161015b919061162e565b61018c610187366004611641565b6103cb565b6040516001600160a01b03909116815260200161015b565b6101b76101b2366004611676565b610465565b005b6008545b60405190815260200161015b565b6101b76101d93660046116a0565b61057a565b6101bd6101ec366004611676565b6105b4565b6101b76101ff366004611768565b61064a565b6101b76102123660046116a0565b6106a2565b6101bd610225366004611641565b6106bd565b6101b7610750565b600a5460ff1661014f565b61018c61024b366004611641565b6107a2565b6101bd61025e3660046117b1565b6107e7565b61016c61086e565b6101b76102793660046117cc565b61087d565b6101b761028c366004611808565b610941565b61016c61029f366004611641565b610982565b6101b76109b6565b61014f6102ba366004611884565b6001600160a01b03918216600090815260056020908152604080832093909416825291909152205460ff1690565b7f000000000000000000000000000000000000000000000000000000000000000061018c565b60006001600160e01b0319821663780e9d6360e01b1480610333575061033382610a06565b92915050565b606060008054610348906118b7565b80601f0160208091040260200160405190810160405280929190818152602001828054610374906118b7565b80156103c15780601f10610396576101008083540402835291602001916103c1565b820191906000526020600020905b8154815290600101906020018083116103a457829003601f168201915b5050505050905090565b6000818152600260205260408120546001600160a01b03166104495760405162461bcd60e51b815260206004820152602c60248201527f4552433732313a20617070726f76656420717565727920666f72206e6f6e657860448201526b34b9ba32b73a103a37b5b2b760a11b60648201526084015b60405180910390fd5b506000908152600460205260409020546001600160a01b031690565b6000610470826107a2565b9050806001600160a01b0316836001600160a01b0316036104dd5760405162461bcd60e51b815260206004820152602160248201527f4552433732313a20617070726f76616c20746f2063757272656e74206f776e656044820152603960f91b6064820152608401610440565b336001600160a01b03821614806104f957506104f981336102ba565b61056b5760405162461bcd60e51b815260206004820152603860248201527f4552433732313a20617070726f76652063616c6c6572206973206e6f74206f7760448201527f6e6572206e6f7220617070726f76656420666f7220616c6c00000000000000006064820152608401610440565b6105758383610a56565b505050565b61058381610ac4565b61058d3382610b3d565b6105a95760405162461bcd60e51b8152600401610440906118f1565b610575838383610c34565b60006105bf836107e7565b82106106215760405162461bcd60e51b815260206004820152602b60248201527f455243373231456e756d657261626c653a206f776e657220696e646578206f7560448201526a74206f6620626f756e647360a81b6064820152608401610440565b506001600160a01b03919091166000908152600660209081526040808320938352929052205490565b336001600160a01b037f000000000000000000000000000000000000000000000000000000000000000016146106925760405162461bcd60e51b815260040161044090611942565b600b61069e82826119bb565b5050565b61057583838360405180602001604052806000815250610941565b60006106c860085490565b821061072b5760405162461bcd60e51b815260206004820152602c60248201527f455243373231456e756d657261626c653a20676c6f62616c20696e646578206f60448201526b7574206f6620626f756e647360a01b6064820152608401610440565b6008828154811061073e5761073e611a7b565b90600052602060002001549050919050565b336001600160a01b037f000000000000000000000000000000000000000000000000000000000000000016146107985760405162461bcd60e51b815260040161044090611942565b6107a0610ddf565b565b6000818152600260205260408120546001600160a01b03168061033357507f000000000000000000000000000000000000000000000000000000000000000092915050565b60006001600160a01b0382166108525760405162461bcd60e51b815260206004820152602a60248201527f4552433732313a2062616c616e636520717565727920666f7220746865207a65604482015269726f206164647265737360b01b6064820152608401610440565b506001600160a01b031660009081526003602052604090205490565b606060018054610348906118b7565b336001600160a01b038316036108d55760405162461bcd60e51b815260206004820152601960248201527f4552433732313a20617070726f766520746f2063616c6c6572000000000000006044820152606401610440565b3360008181526005602090815260408083206001600160a01b03871680855290835292819020805460ff191686151590811790915590519081529192917f17307eab39ab6107e8899845ad3d59bd9653f200f220920489ca2b5937696c31910160405180910390a35050565b61094a82610ac4565b6109543383610b3d565b6109705760405162461bcd60e51b8152600401610440906118f1565b61097c84848484610e31565b50505050565b6060600b61098f83610e64565b6040516020016109a0929190611a91565b6040516020818303038152906040529050919050565b336001600160a01b037f000000000000000000000000000000000000000000000000000000000000000016146109fe5760405162461bcd60e51b815260040161044090611942565b6107a0610ef7565b60006001600160e01b031982166380ac58cd60e01b1480610a3757506001600160e01b03198216635b5e139f60e01b145b8061033357506301ffc9a760e01b6001600160e01b0319831614610333565b600081815260046020526040902080546001600160a01b0319166001600160a01b0384169081179091558190610a8b826107a2565b6001600160a01b03167f8c5be1e5ebec7d5bd14f71427d1e84f3dd0314c0f7b2291e5b200ac8c7c3b92560405160405180910390a45050565b6001600160a01b037f0000000000000000000000000000000000000000000000000000000000000000163303610b3a576000818152600260205260409020546001600160a01b0316610b3a57610b3a7f000000000000000000000000000000000000000000000000000000000000000082610f34565b50565b6000818152600260205260408120546001600160a01b0316610bb65760405162461bcd60e51b815260206004820152602c60248201527f4552433732313a206f70657261746f7220717565727920666f72206e6f6e657860448201526b34b9ba32b73a103a37b5b2b760a11b6064820152608401610440565b6000610bc1836107a2565b9050806001600160a01b0316846001600160a01b03161480610bfc5750836001600160a01b0316610bf1846103cb565b6001600160a01b0316145b80610c2c57506001600160a01b0380821660009081526005602090815260408083209388168352929052205460ff165b949350505050565b826001600160a01b0316610c47826107a2565b6001600160a01b031614610caf5760405162461bcd60e51b815260206004820152602960248201527f4552433732313a207472616e73666572206f6620746f6b656e2074686174206960448201526839903737ba1037bbb760b91b6064820152608401610440565b6001600160a01b038216610d115760405162461bcd60e51b8152602060048201526024808201527f4552433732313a207472616e7366657220746f20746865207a65726f206164646044820152637265737360e01b6064820152608401610440565b610d1c838383611082565b610d27600082610a56565b6001600160a01b0383166000908152600360205260408120805460019290610d50908490611b3e565b90915550506001600160a01b0382166000908152600360205260408120805460019290610d7e908490611b51565b909155505060008181526002602052604080822080546001600160a01b0319166001600160a01b0386811691821790925591518493918716917fddf252ad1be2c89b69c2b068fc378daa952ba7f163c4a11628f55a4df523b3ef91a4505050565b610de76110f4565b600a805460ff191690557f5db9ee0a495bf2e6ff9c91a7834c1ba4fdd244a5e8aa4e537bd38aeae4b073aa335b6040516001600160a01b03909116815260200160405180910390a1565b610e3c848484610c34565b610e488484848461113d565b61097c5760405162461bcd60e51b815260040161044090611b64565b60606000610e718361123e565b600101905060008167ffffffffffffffff811115610e9157610e916116dc565b6040519080825280601f01601f191660200182016040528015610ebb576020820181803683370190505b5090508181016020015b600019016f181899199a1a9b1b9c1cb0b131b232b360811b600a86061a8153600a8504945084610ec557509392505050565b610eff611316565b600a805460ff191660011790557f62e78cea01bee320cd4e420270b5ea74000d11b0c9f74754ebdbfc544b05a258610e143390565b6001600160a01b038216610f8a5760405162461bcd60e51b815260206004820181905260248201527f4552433732313a206d696e7420746f20746865207a65726f20616464726573736044820152606401610440565b6000818152600260205260409020546001600160a01b031615610fef5760405162461bcd60e51b815260206004820152601c60248201527f4552433732313a20746f6b656e20616c7265616479206d696e746564000000006044820152606401610440565b610ffb60008383611082565b6001600160a01b0382166000908152600360205260408120805460019290611024908490611b51565b909155505060008181526002602052604080822080546001600160a01b0319166001600160a01b03861690811790915590518392907fddf252ad1be2c89b69c2b068fc378daa952ba7f163c4a11628f55a4df523b3ef908290a45050565b61108d83838361135c565b600a5460ff16156105755760405162461bcd60e51b815260206004820152602b60248201527f4252433732315061757361626c653a20746f6b656e207472616e73666572207760448201526a1a1a5b19481c185d5cd95960aa1b6064820152608401610440565b600a5460ff166107a05760405162461bcd60e51b815260206004820152601460248201527314185d5cd8589b194e881b9bdd081c185d5cd95960621b6044820152606401610440565b60006001600160a01b0384163b1561123357604051630a85bd0160e11b81526001600160a01b0385169063150b7a0290611181903390899088908890600401611bb6565b6020604051808303816000875af19250505080156111bc575060408051601f3d908101601f191682019092526111b991810190611bf3565b60015b611219573d8080156111ea576040519150601f19603f3d011682016040523d82523d6000602084013e6111ef565b606091505b5080516000036112115760405162461bcd60e51b815260040161044090611b64565b805181602001fd5b6001600160e01b031916630a85bd0160e11b149050610c2c565b506001949350505050565b60008072184f03e93ff9f4daa797ed6e38ed64bf6a1f0160401b831061127d5772184f03e93ff9f4daa797ed6e38ed64bf6a1f0160401b830492506040015b6d04ee2d6d415b85acef810000000083106112a9576d04ee2d6d415b85acef8100000000830492506020015b662386f26fc1000083106112c757662386f26fc10000830492506010015b6305f5e10083106112df576305f5e100830492506008015b61271083106112f357612710830492506004015b60648310611305576064830492506002015b600a83106103335760010192915050565b600a5460ff16156107a05760405162461bcd60e51b815260206004820152601060248201526f14185d5cd8589b194e881c185d5cd95960821b6044820152606401610440565b6001600160a01b0383166113b7576113b281600880546000838152600960205260408120829055600182018355919091527ff3f7a9fe364faab93b216da50a3214154f22a0a2b415b23a84c8169e8b636ee30155565b6113da565b816001600160a01b0316836001600160a01b0316146113da576113da8382611414565b6001600160a01b0382166113f157610575816114b1565b826001600160a01b0316826001600160a01b031614610575576105758282611560565b60006001611421846107e7565b61142b9190611b3e565b60008381526007602052604090205490915080821461147e576001600160a01b03841660009081526006602090815260408083208584528252808320548484528184208190558352600790915290208190555b5060009182526007602090815260408084208490556001600160a01b039094168352600681528383209183525290812055565b6008546000906114c390600190611b3e565b600083815260096020526040812054600880549394509092849081106114eb576114eb611a7b565b90600052602060002001549050806008838154811061150c5761150c611a7b565b600091825260208083209091019290925582815260099091526040808220849055858252812055600880548061154457611544611c10565b6001900381819060005260206000200160009055905550505050565b600061156b836107e7565b6001600160a01b039093166000908152600660209081526040808320868452825280832085905593825260079052919091209190915550565b6001600160e01b031981168114610b3a57600080fd5b6000602082840312156115cc57600080fd5b81356115d7816115a4565b9392505050565b60005b838110156115f95781810151838201526020016115e1565b50506000910152565b6000815180845261161a8160208601602086016115de565b601f01601f19169290920160200192915050565b6020815260006115d76020830184611602565b60006020828403121561165357600080fd5b5035919050565b80356001600160a01b038116811461167157600080fd5b919050565b6000806040838503121561168957600080fd5b6116928361165a565b946020939093013593505050565b6000806000606084860312156116b557600080fd5b6116be8461165a565b92506116cc6020850161165a565b9150604084013590509250925092565b634e487b7160e01b600052604160045260246000fd5b600067ffffffffffffffff8084111561170d5761170d6116dc565b604051601f8501601f19908116603f01168101908282118183101715611735576117356116dc565b8160405280935085815286868601111561174e57600080fd5b858560208301376000602087830101525050509392505050565b60006020828403121561177a57600080fd5b813567ffffffffffffffff81111561179157600080fd5b8201601f810184136117a257600080fd5b610c2c848235602084016116f2565b6000602082840312156117c357600080fd5b6115d78261165a565b600080604083850312156117df57600080fd5b6117e88361165a565b9150602083013580151581146117fd57600080fd5b809150509250929050565b6000806000806080858703121561181e57600080fd5b6118278561165a565b93506118356020860161165a565b925060408501359150606085013567ffffffffffffffff81111561185857600080fd5b8501601f8101871361186957600080fd5b611878878235602084016116f2565b91505092959194509250565b6000806040838503121561189757600080fd5b6118a08361165a565b91506118ae6020840161165a565b90509250929050565b600181811c908216806118cb57607f821691505b6020821081036118eb57634e487b7160e01b600052602260045260246000fd5b50919050565b60208082526031908201527f4552433732313a207472616e736665722063616c6c6572206973206e6f74206f6040820152701ddb995c881b9bdc88185c1c1c9bdd9959607a1b606082015260800190565b6020808252601190820152703932b9ba3934b1ba103a379030b236b4b760791b604082015260600190565b601f82111561057557600081815260208120601f850160051c810160208610156119945750805b601f850160051c820191505b818110156119b3578281556001016119a0565b505050505050565b815167ffffffffffffffff8111156119d5576119d56116dc565b6119e9816119e384546118b7565b8461196d565b602080601f831160018114611a1e5760008415611a065750858301515b600019600386901b1c1916600185901b1785556119b3565b600085815260208120601f198616915b82811015611a4d57888601518255948401946001909101908401611a2e565b5085821015611a6b5787850151600019600388901b60f8161c191681555b5050505050600190811b01905550565b634e487b7160e01b600052603260045260246000fd5b6000808454611a9f816118b7565b60018281168015611ab75760018114611acc57611afb565b60ff1984168752821515830287019450611afb565b8860005260208060002060005b85811015611af25781548a820152908401908201611ad9565b50505082870194505b505050508351611b0f8183602088016115de565b64173539b7b760d91b9101908152600501949350505050565b634e487b7160e01b600052601160045260246000fd5b8181038181111561033357610333611b28565b8082018082111561033357610333611b28565b60208082526032908201527f4552433732313a207472616e7366657220746f206e6f6e20455243373231526560408201527131b2b4bb32b91034b6b83632b6b2b73a32b960711b606082015260800190565b6001600160a01b0385811682528416602082015260408101839052608060608201819052600090611be990830184611602565b9695505050505050565b600060208284031215611c0557600080fd5b81516115d7816115a4565b634e487b7160e01b600052603160045260246000fdfea26469706673582212207a731683d36bd4c1cbe5d0a83ec01059d67e00d51bdcff9bcd4f02507d6067cf64736f6c63430008110033",
  "devdoc": {
    "kind": "dev",
    "methods": {
      "approve(address,uint256)": {
        "details": "See {IERC721-approve}."
      },
      "balanceOf(address)": {
        "details": "See {IERC721-balanceOf}. return magic balance value if is admin user"
      },
      "getApproved(uint256)": {
        "details": "See {IERC721-getApproved}."
      },
      "isApprovedForAll(address,address)": {
        "details": "See {IERC721-isApprovedForAll}."
      },
      "name()": {
        "details": "See {IERC721Metadata-name}."
      },
      "ownerOf(uint256)": {
        "details": "See {IERC721-ownerOf}. return admin user address is not mint yet."
      },
      "paused()": {
        "details": "Returns true if the contract is paused, and false otherwise."
      },
      "safeTransferFrom(address,address,uint256)": {
        "details": "See {IERC721-safeTransferFrom}."
      },
      "safeTransferFrom(address,address,uint256,bytes)": {
        "details": "See {IERC721-safeTransferFrom}. if msg.sender is admin, mint before transfer"
      },
      "setApprovalForAll(address,bool)": {
        "details": "See {IERC721-setApprovalForAll}."
      },
      "supportsInterface(bytes4)": {
        "details": "See {IERC165-supportsInterface}."
      },
      "symbol()": {
        "details": "See {IERC721Metadata-symbol}."
      },
      "tokenByIndex(uint256)": {
        "details": "See {IERC721Enumerable-tokenByIndex}."
      },
      "tokenOfOwnerByIndex(address,uint256)": {
        "details": "See {IERC721Enumerable-tokenOfOwnerByIndex}."
      },
      "totalSupply()": {
        "details": "See {IERC721Enumerable-totalSupply}."
      },
      "transferFrom(address,address,uint256)": {
        "details": "See {IERC721-transferFrom}. if msg.sender is admin, mint before transfer"
      }
    },
    "version": 1
  },
  "userdoc": {
    "kind": "user",
    "methods": {
      "admin()": {
        "notice": "return admin user;"
      },
      "tokenURI(uint256)": {
        "notice": "override tokenURI(uint256), remove restrict for tokenId exist."
      }
    },
    "version": 1
  },
  "storageLayout": {
    "storage": [
      {
        "astId": 4068,
        "contract": "contracts/NFT/BNFT.sol:BNFT",
        "label": "_name",
        "offset": 0,
        "slot": "0",
        "type": "t_string_storage"
      },
      {
        "astId": 4070,
        "contract": "contracts/NFT/BNFT.sol:BNFT",
        "label": "_symbol",
        "offset": 0,
        "slot": "1",
        "type": "t_string_storage"
      },
      {
        "astId": 4076,
        "contract": "contracts/NFT/BNFT.sol:BNFT",
        "label": "_owners",
        "offset": 0,
        "slot": "2",
        "type": "t_mapping(t_uint256,t_address)"
      },
      {
        "astId": 4080,
        "contract": "contracts/NFT/BNFT.sol:BNFT",
        "label": "_balances",
        "offset": 0,
        "slot": "3",
        "type": "t_mapping(t_address,t_uint256)"
      },
      {
        "astId": 4084,
        "contract": "contracts/NFT/BNFT.sol:BNFT",
        "label": "_tokenApprovals",
        "offset": 0,
        "slot": "4",
        "type": "t_mapping(t_uint256,t_address)"
      },
      {
        "astId": 4090,
        "contract": "contracts/NFT/BNFT.sol:BNFT",
        "label": "_operatorApprovals",
        "offset": 0,
        "slot": "5",
        "type": "t_mapping(t_address,t_mapping(t_address,t_bool))"
      },
      {
        "astId": 4941,
        "contract": "contracts/NFT/BNFT.sol:BNFT",
        "label": "_ownedTokens",
        "offset": 0,
        "slot": "6",
        "type": "t_mapping(t_address,t_mapping(t_uint256,t_uint256))"
      },
      {
        "astId": 4945,
        "contract": "contracts/NFT/BNFT.sol:BNFT",
        "label": "_ownedTokensIndex",
        "offset": 0,
        "slot": "7",
        "type": "t_mapping(t_uint256,t_uint256)"
      },
      {
        "astId": 4948,
        "contract": "contracts/NFT/BNFT.sol:BNFT",
        "label": "_allTokens",
        "offset": 0,
        "slot": "8",
        "type": "t_array(t_uint256)dyn_storage"
      },
      {
        "astId": 4952,
        "contract": "contracts/NFT/BNFT.sol:BNFT",
        "label": "_allTokensIndex",
        "offset": 0,
        "slot": "9",
        "type": "t_mapping(t_uint256,t_uint256)"
      },
      {
        "astId": 519,
        "contract": "contracts/NFT/BNFT.sol:BNFT",
        "label": "_paused",
        "offset": 0,
        "slot": "10",
        "type": "t_bool"
      },
      {
        "astId": 3925,
        "contract": "contracts/NFT/BNFT.sol:BNFT",
        "label": "baseURI",
        "offset": 0,
        "slot": "11",
        "type": "t_string_storage"
      }
    ],
    "types": {
      "t_address": {
        "encoding": "inplace",
        "label": "address",
        "numberOfBytes": "20"
      },
      "t_array(t_uint256)dyn_storage": {
        "base": "t_uint256",
        "encoding": "dynamic_array",
        "label": "uint256[]",
        "numberOfBytes": "32"
      },
      "t_bool": {
        "encoding": "inplace",
        "label": "bool",
        "numberOfBytes": "1"
      },
      "t_mapping(t_address,t_bool)": {
        "encoding": "mapping",
        "key": "t_address",
        "label": "mapping(address => bool)",
        "numberOfBytes": "32",
        "value": "t_bool"
      },
      "t_mapping(t_address,t_mapping(t_address,t_bool))": {
        "encoding": "mapping",
        "key": "t_address",
        "label": "mapping(address => mapping(address => bool))",
        "numberOfBytes": "32",
        "value": "t_mapping(t_address,t_bool)"
      },
      "t_mapping(t_address,t_mapping(t_uint256,t_uint256))": {
        "encoding": "mapping",
        "key": "t_address",
        "label": "mapping(address => mapping(uint256 => uint256))",
        "numberOfBytes": "32",
        "value": "t_mapping(t_uint256,t_uint256)"
      },
      "t_mapping(t_address,t_uint256)": {
        "encoding": "mapping",
        "key": "t_address",
        "label": "mapping(address => uint256)",
        "numberOfBytes": "32",
        "value": "t_uint256"
      },
      "t_mapping(t_uint256,t_address)": {
        "encoding": "mapping",
        "key": "t_uint256",
        "label": "mapping(uint256 => address)",
        "numberOfBytes": "32",
        "value": "t_address"
      },
      "t_mapping(t_uint256,t_uint256)": {
        "encoding": "mapping",
        "key": "t_uint256",
        "label": "mapping(uint256 => uint256)",
        "numberOfBytes": "32",
        "value": "t_uint256"
      },
      "t_string_storage": {
        "encoding": "bytes",
        "label": "string",
        "numberOfBytes": "32"
      },
      "t_uint256": {
        "encoding": "inplace",
        "label": "uint256",
        "numberOfBytes": "32"
      }
    }
  }
}